{
  "contracts/pranaHelper.sol": {
    "PranaInterface": {
      "abi": [
        {
          "inputs": [
            {
              "internalType": "uint256",
              "name": "tokenid",
              "type": "uint256"
            },
            {
              "internalType": "address",
              "name": "_tokenRecipient",
              "type": "address"
            }
          ],
          "name": "buyToken",
          "outputs": [],
          "stateMutability": "payable",
          "type": "function"
        },
        {
          "inputs": [
            {
              "internalType": "uint256",
              "name": "tokenid",
              "type": "uint256"
            },
            {
              "internalType": "address",
              "name": "_tokenRecipient",
              "type": "address"
            }
          ],
          "name": "buyTokenAsTheSpecialBuyer",
          "outputs": [],
          "stateMutability": "payable",
          "type": "function"
        }
      ],
      "evm": {
        "bytecode": {
          "linkReferences": {},
          "object": "608060405234801561001057600080fd5b5060ff8061001f6000396000f3fe60806040526004361060265760003560e01c80635437c7fa14602b5780639134709e146076575b600080fd5b607460048036036040811015603f57600080fd5b8101908080359060200190929190803573ffffffffffffffffffffffffffffffffffffffff16906020019092919050505060c1565b005b60bf60048036036040811015608a57600080fd5b8101908080359060200190929190803573ffffffffffffffffffffffffffffffffffffffff16906020019092919050505060c5565b005b5050565b505056fea2646970667358221220c476661ce9c954eb000eb486cd343bedf0267b893429a9474243c7345ebf3f1364736f6c63430006020033",
          "opcodes": "PUSH1 0x80 PUSH1 0x40 MSTORE CALLVALUE DUP1 ISZERO PUSH2 0x10 JUMPI PUSH1 0x0 DUP1 REVERT JUMPDEST POP PUSH1 0xFF DUP1 PUSH2 0x1F PUSH1 0x0 CODECOPY PUSH1 0x0 RETURN INVALID PUSH1 0x80 PUSH1 0x40 MSTORE PUSH1 0x4 CALLDATASIZE LT PUSH1 0x26 JUMPI PUSH1 0x0 CALLDATALOAD PUSH1 0xE0 SHR DUP1 PUSH4 0x5437C7FA EQ PUSH1 0x2B JUMPI DUP1 PUSH4 0x9134709E EQ PUSH1 0x76 JUMPI JUMPDEST PUSH1 0x0 DUP1 REVERT JUMPDEST PUSH1 0x74 PUSH1 0x4 DUP1 CALLDATASIZE SUB PUSH1 0x40 DUP2 LT ISZERO PUSH1 0x3F JUMPI PUSH1 0x0 DUP1 REVERT JUMPDEST DUP2 ADD SWAP1 DUP1 DUP1 CALLDATALOAD SWAP1 PUSH1 0x20 ADD SWAP1 SWAP3 SWAP2 SWAP1 DUP1 CALLDATALOAD PUSH20 0xFFFFFFFFFFFFFFFFFFFFFFFFFFFFFFFFFFFFFFFF AND SWAP1 PUSH1 0x20 ADD SWAP1 SWAP3 SWAP2 SWAP1 POP POP POP PUSH1 0xC1 JUMP JUMPDEST STOP JUMPDEST PUSH1 0xBF PUSH1 0x4 DUP1 CALLDATASIZE SUB PUSH1 0x40 DUP2 LT ISZERO PUSH1 0x8A JUMPI PUSH1 0x0 DUP1 REVERT JUMPDEST DUP2 ADD SWAP1 DUP1 DUP1 CALLDATALOAD SWAP1 PUSH1 0x20 ADD SWAP1 SWAP3 SWAP2 SWAP1 DUP1 CALLDATALOAD PUSH20 0xFFFFFFFFFFFFFFFFFFFFFFFFFFFFFFFFFFFFFFFF AND SWAP1 PUSH1 0x20 ADD SWAP1 SWAP3 SWAP2 SWAP1 POP POP POP PUSH1 0xC5 JUMP JUMPDEST STOP JUMPDEST POP POP JUMP JUMPDEST POP POP JUMP INVALID LOG2 PUSH5 0x6970667358 0x22 SLT KECCAK256 0xC4 PUSH23 0x661CE9C954EB000EB486CD343BEDF0267B893429A94742 NUMBER 0xC7 CALLVALUE 0x5E 0xBF EXTCODEHASH SGT PUSH5 0x736F6C6343 STOP MOD MUL STOP CALLER "
        },
        "methodIdentifiers": {
          "buyToken(uint256,address)": "9134709e",
          "buyTokenAsTheSpecialBuyer(uint256,address)": "5437c7fa"
        }
      }
    }
  }
}